{
  "contractName": "Raffles",
  "abi": [
    {
      "inputs": [],
      "payable": false,
      "stateMutability": "nonpayable",
      "type": "constructor"
    },
    {
      "anonymous": false,
      "inputs": [
        {
          "indexed": false,
          "internalType": "address",
          "name": "buyer",
          "type": "address"
        },
        {
          "indexed": false,
          "internalType": "uint256",
          "name": "raffleId",
          "type": "uint256"
        },
        {
          "indexed": false,
          "internalType": "uint256",
          "name": "numTickets",
          "type": "uint256"
        }
      ],
      "name": "LogBuyTickets",
      "type": "event"
    },
    {
      "anonymous": false,
      "inputs": [
        {
          "indexed": false,
          "internalType": "uint256",
          "name": "_raffleId",
          "type": "uint256"
        },
        {
          "indexed": false,
          "internalType": "address",
          "name": "_winner",
          "type": "address"
        }
      ],
      "name": "LogGenerateRaffleWinner",
      "type": "event"
    },
    {
      "anonymous": false,
      "inputs": [
        {
          "indexed": false,
          "internalType": "string",
          "name": "name",
          "type": "string"
        },
        {
          "indexed": false,
          "internalType": "uint256",
          "name": "ticketsAvailable",
          "type": "uint256"
        },
        {
          "indexed": false,
          "internalType": "uint256",
          "name": "raffleId",
          "type": "uint256"
        }
      ],
      "name": "LogRaffleAdded",
      "type": "event"
    },
    {
      "anonymous": false,
      "inputs": [
        {
          "indexed": false,
          "internalType": "string",
          "name": "name",
          "type": "string"
        },
        {
          "indexed": false,
          "internalType": "uint256",
          "name": "ticketsAvailable",
          "type": "uint256"
        },
        {
          "indexed": false,
          "internalType": "uint256",
          "name": "raffleId",
          "type": "uint256"
        }
      ],
      "name": "LogRaffleClosed",
      "type": "event"
    },
    {
      "anonymous": false,
      "inputs": [
        {
          "indexed": false,
          "internalType": "address",
          "name": "buyer",
          "type": "address"
        },
        {
          "indexed": false,
          "internalType": "uint256",
          "name": "balance",
          "type": "uint256"
        },
        {
          "indexed": false,
          "internalType": "uint256",
          "name": "eventId",
          "type": "uint256"
        }
      ],
      "name": "LogSendPrize",
      "type": "event"
    },
    {
      "anonymous": false,
      "inputs": [
        {
          "indexed": true,
          "internalType": "address",
          "name": "previousOwner",
          "type": "address"
        },
        {
          "indexed": true,
          "internalType": "address",
          "name": "newOwner",
          "type": "address"
        }
      ],
      "name": "OwnershipTransferred",
      "type": "event"
    },
    {
      "constant": true,
      "inputs": [],
      "name": "PRICE_TICKET",
      "outputs": [
        {
          "internalType": "uint256",
          "name": "",
          "type": "uint256"
        }
      ],
      "payable": false,
      "stateMutability": "view",
      "type": "function"
    },
    {
      "constant": true,
      "inputs": [],
      "name": "fee",
      "outputs": [
        {
          "internalType": "uint256",
          "name": "",
          "type": "uint256"
        }
      ],
      "payable": false,
      "stateMutability": "view",
      "type": "function"
    },
    {
      "constant": true,
      "inputs": [],
      "name": "isOwner",
      "outputs": [
        {
          "internalType": "bool",
          "name": "",
          "type": "bool"
        }
      ],
      "payable": false,
      "stateMutability": "view",
      "type": "function"
    },
    {
      "constant": true,
      "inputs": [],
      "name": "owner",
      "outputs": [
        {
          "internalType": "address",
          "name": "",
          "type": "address"
        }
      ],
      "payable": false,
      "stateMutability": "view",
      "type": "function"
    },
    {
      "constant": true,
      "inputs": [],
      "name": "raffleId",
      "outputs": [
        {
          "internalType": "uint256",
          "name": "",
          "type": "uint256"
        }
      ],
      "payable": false,
      "stateMutability": "view",
      "type": "function"
    },
    {
      "constant": true,
      "inputs": [
        {
          "internalType": "uint256",
          "name": "",
          "type": "uint256"
        },
        {
          "internalType": "uint256",
          "name": "",
          "type": "uint256"
        }
      ],
      "name": "ticketOwnerInfo",
      "outputs": [
        {
          "internalType": "address",
          "name": "",
          "type": "address"
        }
      ],
      "payable": false,
      "stateMutability": "view",
      "type": "function"
    },
    {
      "constant": false,
      "inputs": [
        {
          "internalType": "address",
          "name": "newOwner",
          "type": "address"
        }
      ],
      "name": "transferOwnership",
      "outputs": [],
      "payable": false,
      "stateMutability": "nonpayable",
      "type": "function"
    },
    {
      "constant": false,
      "inputs": [
        {
          "internalType": "string",
          "name": "_name",
          "type": "string"
        },
        {
          "internalType": "uint256",
          "name": "_numTickets",
          "type": "uint256"
        }
      ],
      "name": "addRaffle",
      "outputs": [
        {
          "internalType": "uint256",
          "name": "",
          "type": "uint256"
        }
      ],
      "payable": false,
      "stateMutability": "nonpayable",
      "type": "function"
    },
    {
      "constant": true,
      "inputs": [
        {
          "internalType": "uint256",
          "name": "_raffleId",
          "type": "uint256"
        }
      ],
      "name": "searchForRaffle",
      "outputs": [
        {
          "internalType": "string",
          "name": "name",
          "type": "string"
        },
        {
          "internalType": "uint256",
          "name": "totalTickets",
          "type": "uint256"
        },
        {
          "internalType": "uint256",
          "name": "ticketsSold",
          "type": "uint256"
        },
        {
          "internalType": "bool",
          "name": "isOpen",
          "type": "bool"
        },
        {
          "internalType": "address",
          "name": "_winner",
          "type": "address"
        },
        {
          "internalType": "uint256",
          "name": "_pool",
          "type": "uint256"
        }
      ],
      "payable": false,
      "stateMutability": "view",
      "type": "function"
    },
    {
      "constant": false,
      "inputs": [
        {
          "internalType": "uint256",
          "name": "_raffleId",
          "type": "uint256"
        },
        {
          "internalType": "uint256",
          "name": "numTickets",
          "type": "uint256"
        }
      ],
      "name": "buyTicket",
      "outputs": [],
      "payable": true,
      "stateMutability": "payable",
      "type": "function"
    },
    {
      "constant": true,
      "inputs": [
        {
          "internalType": "uint256",
          "name": "_raffleId",
          "type": "uint256"
        }
      ],
      "name": "howManyTicketsHaveIBought",
      "outputs": [
        {
          "internalType": "uint256",
          "name": "",
          "type": "uint256"
        }
      ],
      "payable": false,
      "stateMutability": "view",
      "type": "function"
    },
    {
      "constant": false,
      "inputs": [
        {
          "internalType": "uint256",
          "name": "_raffleId",
          "type": "uint256"
        }
      ],
      "name": "endSale",
      "outputs": [],
      "payable": false,
      "stateMutability": "nonpayable",
      "type": "function"
    },
    {
      "constant": false,
      "inputs": [
        {
          "internalType": "uint256",
          "name": "_raffleId",
          "type": "uint256"
        },
        {
          "internalType": "string",
          "name": "seed",
          "type": "string"
        }
      ],
      "name": "generateRaffleWinner",
      "outputs": [
        {
          "internalType": "uint256",
          "name": "_w",
          "type": "uint256"
        }
      ],
      "payable": false,
      "stateMutability": "nonpayable",
      "type": "function"
    },
    {
      "constant": false,
      "inputs": [
        {
          "internalType": "uint256",
          "name": "_raffleId",
          "type": "uint256"
        }
      ],
      "name": "winnerWithdraw",
      "outputs": [],
      "payable": false,
      "stateMutability": "nonpayable",
      "type": "function"
    }
  ],
  "bytecode": "0x608060405234801561001057600080fd5b50336000806101000a81548173ffffffffffffffffffffffffffffffffffffffff021916908373ffffffffffffffffffffffffffffffffffffffff16021790555060006002819055506064600181905550600a600381905550611979806100786000396000f3fe6080604052600436106100dd5760003560e01c80638f32d59b1161007f578063d88d76e811610059578063d88d76e8146104a8578063d8b4cc2f1461052d578063ddca3f4314610613578063f2fde38b1461063e576100dd565b80638f32d59b14610413578063b1bbd45314610442578063b375603c1461047d576100dd565b806325593629116100bb578063255936291461030a5780632759130a14610335578063298ec208146103845780638da5cb5b146103bc576100dd565b806304d1a846146100e25780630b1b82951461011d57806323c4881414610224575b600080fd5b3480156100ee57600080fd5b5061011b6004803603602081101561010557600080fd5b810190808035906020019092919050505061068f565b005b34801561012957600080fd5b506101566004803603602081101561014057600080fd5b8101908080359060200190929190505050610843565b6040518080602001878152602001868152602001851515151581526020018473ffffffffffffffffffffffffffffffffffffffff1673ffffffffffffffffffffffffffffffffffffffff168152602001838152602001828103825288818151815260200191508051906020019080838360005b838110156101e45780820151818401526020810190506101c9565b50505050905090810190601f1680156102115780820380516001836020036101000a031916815260200191505b5097505050505050505060405180910390f35b34801561023057600080fd5b506102f46004803603604081101561024757600080fd5b810190808035906020019064010000000081111561026457600080fd5b82018360208201111561027657600080fd5b8035906020019184600183028401116401000000008311171561029857600080fd5b91908080601f016020809104026020016040519081016040528093929190818152602001838380828437600081840152601f19601f82011690508083019250505050505050919291929080359060200190929190505050610a2f565b6040518082815260200191505060405180910390f35b34801561031657600080fd5b5061031f610c23565b6040518082815260200191505060405180910390f35b34801561034157600080fd5b5061036e6004803603602081101561035857600080fd5b8101908080359060200190929190505050610c29565b6040518082815260200191505060405180910390f35b6103ba6004803603604081101561039a57600080fd5b810190808035906020019092919080359060200190929190505050610cfe565b005b3480156103c857600080fd5b506103d1611189565b604051808273ffffffffffffffffffffffffffffffffffffffff1673ffffffffffffffffffffffffffffffffffffffff16815260200191505060405180910390f35b34801561041f57600080fd5b506104286111b2565b604051808215151515815260200191505060405180910390f35b34801561044e57600080fd5b5061047b6004803603602081101561046557600080fd5b8101908080359060200190929190505050611209565b005b34801561048957600080fd5b5061049261132a565b6040518082815260200191505060405180910390f35b3480156104b457600080fd5b506104eb600480360360408110156104cb57600080fd5b810190808035906020019092919080359060200190929190505050611330565b604051808273ffffffffffffffffffffffffffffffffffffffff1673ffffffffffffffffffffffffffffffffffffffff16815260200191505060405180910390f35b34801561053957600080fd5b506105fd6004803603604081101561055057600080fd5b81019080803590602001909291908035906020019064010000000081111561057757600080fd5b82018360208201111561058957600080fd5b803590602001918460018302840111640100000000831117156105ab57600080fd5b91908080601f016020809104026020016040519081016040528093929190818152602001838380828437600081840152601f19601f820116905080830192505050505050509192919290505050611372565b6040518082815260200191505060405180910390f35b34801561061f57600080fd5b506106286116d6565b6040518082815260200191505060405180910390f35b34801561064a57600080fd5b5061068d6004803603602081101561066157600080fd5b81019080803573ffffffffffffffffffffffffffffffffffffffff1690602001909291905050506116dc565b005b6106976111b2565b6106a057600080fd5b60025460018201111561071b576040517f08c379a000000000000000000000000000000000000000000000000000000000815260040180806020018281038252600e8152602001807f496e76616c696420526166666c6500000000000000000000000000000000000081525060200191505060405180910390fd5b60006004600083815260200190815260200160002060030160006101000a81548160ff0219169083151502179055507faa40adb81d1d6ecaf16db7b95d8e7f2ad693bfe44a90f38b2b52557694f58a3660046000838152602001908152602001600020600001600460008481526020019081526020016000206001015460025460405180806020018481526020018381526020018281038252858181546001816001161561010002031660029004815260200191508054600181600116156101000203166002900480156108305780601f1061080557610100808354040283529160200191610830565b820191906000526020600020905b81548152906001019060200180831161081357829003601f168201915b505094505050505060405180910390a150565b606060008060008060006002546001880111156108c8576040517f08c379a000000000000000000000000000000000000000000000000000000000815260040180806020018281038252600e8152602001807f496e76616c696420526166666c6500000000000000000000000000000000000081525060200191505060405180910390fd5b600460008881526020019081526020016000206000016004600089815260200190815260200160002060010154600460008a815260200190815260200160002060020154600460008b815260200190815260200160002060030160009054906101000a900460ff16600460008c815260200190815260200160002060030160019054906101000a900473ffffffffffffffffffffffffffffffffffffffff16600460008d815260200190815260200160002060040154858054600181600116156101000203166002900480601f016020809104026020016040519081016040528092919081815260200182805460018160011615610100020316600290048015610a135780601f106109e857610100808354040283529160200191610a13565b820191906000526020600020905b8154815290600101906020018083116109f657829003601f168201915b5050505050955095509550955095509550955091939550919395565b6000610a396111b2565b610a4257600080fd5b610a4a611851565b6040518060c0016040528085815260200184815260200160008152602001600115158152602001600073ffffffffffffffffffffffffffffffffffffffff16815260200160008152509050806004600060025481526020019081526020016000206000820151816000019080519060200190610ac792919061189f565b50602082015181600101556040820151816002015560608201518160030160006101000a81548160ff02191690831515021790555060808201518160030160016101000a81548173ffffffffffffffffffffffffffffffffffffffff021916908373ffffffffffffffffffffffffffffffffffffffff16021790555060a082015181600401559050507f849b578d477b798c665352a3fe364dc820d3542e8910db7a424462a3288ce9bd8482602001516002546040518080602001848152602001838152602001828103825285818151815260200191508051906020019080838360005b83811015610bc6578082015181840152602081019050610bab565b50505050905090810190601f168015610bf35780820380516001836020036101000a031916815260200191505b5094505050505060405180910390a160026000815480929190600101919050555060016002540391505092915050565b60015481565b6000600254600183011115610ca6576040517f08c379a000000000000000000000000000000000000000000000000000000000815260040180806020018281038252600e8152602001807f496e76616c696420526166666c6500000000000000000000000000000000000081525060200191505060405180910390fd5b6005600083815260200190815260200160002060003373ffffffffffffffffffffffffffffffffffffffff1673ffffffffffffffffffffffffffffffffffffffff168152602001908152602001600020549050919050565b610d06611189565b73ffffffffffffffffffffffffffffffffffffffff163373ffffffffffffffffffffffffffffffffffffffff161415610da7576040517f08c379a00000000000000000000000000000000000000000000000000000000081526004018080602001828103825260198152602001807f4f776e65722063616e6e6f74206275792061207469636b65740000000000000081525060200191505060405180910390fd5b60016004600084815260200190815260200160002060030160006101000a81548160ff0219169083151502179055610e47576040517f08c379a00000000000000000000000000000000000000000000000000000000081526004018080602001828103825260188152602001807f7469636b65742073616c6573206861766520636c6f736564000000000000000081525060200191505060405180910390fd5b6004600083815260200190815260200160002060010154600460008481526020019081526020016000206002015410610e7f57600080fd5b610e94600154826116f990919063ffffffff16565b341015610f09576040517f08c379a000000000000000000000000000000000000000000000000000000000815260040180806020018281038252601e8152602001807f696e73756666696369656e742066756e647320666f72207469636b657473000081525060200191505060405180910390fd5b600254600183011115610f84576040517f08c379a000000000000000000000000000000000000000000000000000000000815260040180806020018281038252600e8152602001807f496e76616c696420526166666c6500000000000000000000000000000000000081525060200191505060405180910390fd5b806005600084815260200190815260200160002060003373ffffffffffffffffffffffffffffffffffffffff1673ffffffffffffffffffffffffffffffffffffffff1681526020019081526020016000206000828254019250508190555060008090505b8181101561109c57336006600085815260200190815260200160002060006004600087815260200190815260200160002060020154815260200190815260200160002060006101000a81548173ffffffffffffffffffffffffffffffffffffffff021916908373ffffffffffffffffffffffffffffffffffffffff16021790555060046000848152602001908152602001600020600201600081548092919060010191905055508080600101915050610fe8565b50600154810260046000848152602001908152602001600020600401600082825401925050819055503373ffffffffffffffffffffffffffffffffffffffff166108fc600154830234039081150290604051600060405180830381858888f19350505050158015611111573d6000803e3d6000fd5b507f15827fa78fedf80f93aa72ce61e705b1362cab60ae596b1bb327076fc3856c24338383604051808473ffffffffffffffffffffffffffffffffffffffff1673ffffffffffffffffffffffffffffffffffffffff168152602001838152602001828152602001935050505060405180910390a15050565b60008060009054906101000a900473ffffffffffffffffffffffffffffffffffffffff16905090565b60008060009054906101000a900473ffffffffffffffffffffffffffffffffffffffff1673ffffffffffffffffffffffffffffffffffffffff163373ffffffffffffffffffffffffffffffffffffffff1614905090565b60006004600083815260200190815260200160002060030160006101000a81548160ff021916908315150217905561124057600080fd5b6004600082815260200190815260200160002060030160019054906101000a900473ffffffffffffffffffffffffffffffffffffffff1673ffffffffffffffffffffffffffffffffffffffff163373ffffffffffffffffffffffffffffffffffffffff16146112ae57600080fd5b3373ffffffffffffffffffffffffffffffffffffffff166108fc60046000848152602001908152602001600020600401549081150290604051600060405180830381858888f1935050505015801561130a573d6000803e3d6000fd5b506000600460008381526020019081526020016000206004018190555050565b60025481565b60066020528160005260406000206020528060005260406000206000915091509054906101000a900473ffffffffffffffffffffffffffffffffffffffff1681565b600061137c6111b2565b61138557600080fd5b60006004600085815260200190815260200160002060030160006101000a81548160ff02191690831515021790556113bc57600080fd5b6004600084815260200190815260200160002060030160019054906101000a900473ffffffffffffffffffffffffffffffffffffffff1673ffffffffffffffffffffffffffffffffffffffff1660001461141557600080fd5b606082428560046000888152602001908152602001600020600201546040516020018085805190602001908083835b602083106114675780518252602082019150602081019050602083039250611444565b6001836020036101000a03801982511681845116808217855250505050505090500184815260200183815260200182815260200194505050505060405160208183030381529060405290506000818051906020012060001c90506000600460008781526020019081526020016000206002015482816114e257fe5b06905060066000878152602001908152602001600020600082815260200190815260200160002060009054906101000a900473ffffffffffffffffffffffffffffffffffffffff166004600088815260200190815260200160002060030160016101000a81548173ffffffffffffffffffffffffffffffffffffffff021916908373ffffffffffffffffffffffffffffffffffffffff16021790555060006115be60646115b0600460008b8152602001908152602001600020600401546003546116f990919063ffffffff16565b61173390919063ffffffff16565b90508060046000898152602001908152602001600020600401600082825403925050819055503373ffffffffffffffffffffffffffffffffffffffff166108fc829081150290604051600060405180830381858888f1935050505015801561162a573d6000803e3d6000fd5b507f7e74f3656914ff86b8210d1499ee8af78f0d751a90c0a08b79ae7cb6e2978ae787600460008a815260200190815260200160002060030160019054906101000a900473ffffffffffffffffffffffffffffffffffffffff16604051808381526020018273ffffffffffffffffffffffffffffffffffffffff1673ffffffffffffffffffffffffffffffffffffffff1681526020019250505060405180910390a15050505092915050565b60035481565b6116e46111b2565b6116ed57600080fd5b6116f681611759565b50565b60008083141561170c576000905061172d565b600082840290508284828161171d57fe5b041461172857600080fd5b809150505b92915050565b600080821161174157600080fd5b600082848161174c57fe5b0490508091505092915050565b600073ffffffffffffffffffffffffffffffffffffffff168173ffffffffffffffffffffffffffffffffffffffff16141561179357600080fd5b8073ffffffffffffffffffffffffffffffffffffffff166000809054906101000a900473ffffffffffffffffffffffffffffffffffffffff1673ffffffffffffffffffffffffffffffffffffffff167f8be0079c531659141344cd1fd0a4f28419497f9722a3daafe3b4186f6b6457e060405160405180910390a3806000806101000a81548173ffffffffffffffffffffffffffffffffffffffff021916908373ffffffffffffffffffffffffffffffffffffffff16021790555050565b6040518060c00160405280606081526020016000815260200160008152602001600015158152602001600073ffffffffffffffffffffffffffffffffffffffff168152602001600081525090565b828054600181600116156101000203166002900490600052602060002090601f016020900481019282601f106118e057805160ff191683800117855561190e565b8280016001018555821561190e579182015b8281111561190d5782518255916020019190600101906118f2565b5b50905061191b919061191f565b5090565b61194191905b8082111561193d576000816000905550600101611925565b5090565b9056fea265627a7a72315820a22026ee5c394fb26d41d06301e5415f4fa476f710e04a5fc00edabbebee4afc64736f6c634300050c0032",
  "source": "pragma solidity ^0.5.0;\n\nimport \"./Ownable.sol\";\nimport \"./SafeMath.sol\";\n\n///The Raffles contract keeps track of the details and ticket sales of multiple raffles.\n\ncontract Raffles is Ownable {\n    using SafeMath for uint256;\n    uint256 public PRICE_TICKET;\n    // Created a variable to keep track of the raffle ID numbers.\n    uint256 public raffleId; //number of raffles\n    uint256 public fee;\n\n    /*\n        Defined a Raffle struct\n        This struct has 5 fields: name, totalTickets, ticketsSold, buyers, and isOpen.\n        The \"buyers\" field should keep track of addresses and how many tickets each buyer purchases.\n    */\n    struct Raffle {\n        string name;\n        uint256 totalTickets;\n        uint256 ticketsSold;\n        bool isOpen;\n        address winner;\n        uint256 pool;\n    }\n\n    /*\n        Created a mapping to keep track of the raffles.\n        The mapping key is an integer, the value is a Raffle struct.\n        Called the mapping \"raffles\".\n    */\n    mapping(uint256 => Raffle) private raffles;\n\n    /*\n        Created a double mapping to keep track of the number of tickets a buyer bought.\n        This maps the raffleID --> List of addresses --> uint numberOfTicketsBought\n    */\n    //raffle id -> list of addresses --> numberOfTicketsBought\n    mapping(uint256 => mapping(address => uint256)) private numTicketsBought; //how many tickets has a person bought\n\n    //raffle id -> list of tickets -> buyer address of ticket\n    mapping(uint256 => mapping(uint256 => address)) public ticketOwnerInfo;\n\n    event LogRaffleAdded(\n        string name,\n        uint256 ticketsAvailable,\n        uint256 raffleId\n    );\n    event LogBuyTickets(address buyer, uint256 raffleId, uint256 numTickets);\n    event LogRaffleClosed(\n        string name,\n        uint256 ticketsAvailable,\n        uint256 raffleId\n    );\n    event LogGenerateRaffleWinner(uint256 _raffleId, address _winner);\n    event LogSendPrize(address buyer, uint256 balance, uint256 eventId);\n\n    constructor() public {\n        raffleId = 0;\n        PRICE_TICKET = 100;\n        fee = 10;\n    }\n\n    /*\n        addRaffle()\n        This function takes 1 parameter, a name\n        Only the contract owner should be able to call this function.\n        In the function:\n            - Sets the name in a new event.\n            - sets the raffle to open\n            - sets an raffle ID\n            - increment the ID\n            - emit the appropriate event\n            - return the raffle's ID\n    */\n\n    function addRaffle(string memory _name, uint256 _numTickets)\n        public\n        onlyOwner\n        returns (uint256)\n    {\n        Raffle memory newRaffle = Raffle(\n            _name,\n            _numTickets,\n            0,\n            true,\n            address(0),\n            0\n        );\n        raffles[raffleId] = newRaffle;\n        emit LogRaffleAdded(_name, newRaffle.totalTickets, raffleId);\n        raffleId++;\n        return raffleId - 1;\n    }\n\n    /*\n        searchForRaffle()\n        This function takes one parameter, the raffle ID.\n        The function returns information about the event this order:\n            1. name\n            2. tickets available\n            3. ticketsSold\n            4. isOpen\n    */\n    function searchForRaffle(uint256 _raffleId)\n        public\n        view\n        returns (\n            string memory name,\n            uint256 totalTickets,\n            uint256 ticketsSold,\n            bool isOpen,\n            address _winner,\n            uint256 _pool\n        )\n    {\n        if (_raffleId + 1 > raffleId) {\n            revert(\"Invalid Raffle\");\n        } else {\n            return (\n                raffles[_raffleId].name,\n                raffles[_raffleId].totalTickets,\n                raffles[_raffleId].ticketsSold,\n                raffles[_raffleId].isOpen,\n                raffles[_raffleId].winner,\n                raffles[_raffleId].pool\n            );\n        }\n\n    }\n\n    /*\n        buyTicket()\n        This function allows users to buy tickets for a specific raffle.\n        This function takes 1 parameter, an raffle ID because the user can only purchase one ticket\n        The function checks:\n            - that the raffle sales are open\n            - that the transaction value is sufficient to purchase ticket\n            - that there are enough tickets available to complete the purchase\n        The function:\n            - increments the ticket sale count\n            - refunds any surplus value sent\n            - emits the appropriate event\n    */\n\n    function buyTicket(uint256 _raffleId, uint256 numTickets) public payable {\n        require(msg.sender != owner(), \"Owner cannot buy a ticket\");\n        require(raffles[_raffleId].isOpen = true, \"ticket sales have closed\");\n        require(\n            raffles[_raffleId].ticketsSold < raffles[_raffleId].totalTickets\n        );\n        require(\n            msg.value >= (numTickets.mul(PRICE_TICKET)),\n            \"insufficient funds for tickets\"\n        );\n\n        if (_raffleId + 1 > raffleId) {\n            revert(\"Invalid Raffle\");\n        } else {\n            numTicketsBought[_raffleId][msg.sender] += numTickets;\n\n            for (uint256 i = 0; i < numTickets; i++) {\n                ticketOwnerInfo[_raffleId][raffles[_raffleId].ticketsSold] = msg\n                    .sender;\n                raffles[_raffleId].ticketsSold++;\n            }\n\n            raffles[_raffleId].pool += numTickets * PRICE_TICKET;\n\n            msg.sender.transfer(msg.value - (numTickets * PRICE_TICKET)); //sending back change\n            emit LogBuyTickets(msg.sender, _raffleId, numTickets);\n        }\n    }\n\n    /*\n        howManyTicketsHaveIBought()\n        This function takes one parameter, the raffle ID.\n        The function returns information about the number of tickets a buyer bought\n    */\n    function howManyTicketsHaveIBought(uint256 _raffleId)\n        public\n        view\n        returns (uint256)\n    {\n        if (_raffleId + 1 > raffleId) {\n            revert(\"Invalid Raffle\");\n        } else {\n            return numTicketsBought[_raffleId][msg.sender];\n        }\n    }\n\n    /*\n        endSale() - This function takes one parameter, the raffle ID\n        Only the contract owner can call this function\n            - closes raffle sales\n            - emit the appropriate event\n     */\n\n    function endSale(uint256 _raffleId) public onlyOwner {\n        //todo,make sure you can't close o safe twice\n        if (_raffleId + 1 > raffleId) {\n            revert(\"Invalid Raffle\");\n        } else {\n            raffles[_raffleId].isOpen = false;\n            emit LogRaffleClosed(\n                raffles[_raffleId].name,\n                raffles[_raffleId].totalTickets,\n                raffleId\n            );\n        }\n    }\n\n    /*\n        generateRaffleWinner() - This function takes two parameters, the raffleID and a string that the host can enter\n        Only the contract owner can call this function\n            - the raffle must be closed to call this function\n            - uses keccak on the string to generate a random number between 1 and ticketsSold\n            - the fee is transferred to the owner/host of the raffle\n            - emit the appropriate event\n        If this were to scale, I would use oraclize (paid for service) to generate a random number\n         \n     */\n    function generateRaffleWinner(uint256 _raffleId, string memory seed)\n        public\n        onlyOwner\n        returns (uint256 _w)\n    {\n        require(raffles[_raffleId].isOpen = false);\n\n        require(0 == int256(raffles[_raffleId].winner));\n\n        bytes memory b = abi.encodePacked(\n            seed,\n            now,\n            _raffleId,\n            raffles[_raffleId].ticketsSold\n        );\n\n        uint256 big = uint256(keccak256(b));\n\n        uint256 winner_ticket_num = big % raffles[_raffleId].ticketsSold;\n\n        raffles[_raffleId]\n            .winner = ticketOwnerInfo[_raffleId][winner_ticket_num];\n\n        uint256 ownershare = fee.mul(raffles[_raffleId].pool).div(100);\n\n        raffles[_raffleId].pool -= ownershare;\n\n        msg.sender.transfer(ownershare);\n\n        emit LogGenerateRaffleWinner(_raffleId, raffles[_raffleId].winner);\n    }\n\n    /*\n        winnerWithdraw() - This function takes one parameter, the raffleID\n        Only the winner that is generated can call this function\n            - the raffle must be closed to call this function\n            - winner can withdraw funds from the pool to their address\n            - the pool is set to zero once a withdraw is made\n\n         \n     */\n    function winnerWithdraw(uint256 _raffleId) public {\n        require(raffles[_raffleId].isOpen = false);\n        require(msg.sender == raffles[_raffleId].winner);\n        msg.sender.transfer(raffles[_raffleId].pool);\n        raffles[_raffleId].pool = 0;\n    }\n\n}\n",
  "sourcePath": "/Users/jenbeltran/Desktop/blockchain-examples/blockchain-project/contracts/Raffles.sol",
  "compiler": {
    "name": "solc",
    "version": "0.5.12+commit.7709ece9.Emscripten.clang"
  },
  "schemaVersion": "3.0.20",
  "updatedAt": "2020-01-31T22:51:36.899Z",
  "networkType": "ethereum",
  "devdoc": {
    "methods": {}
  },
  "userdoc": {
    "methods": {},
    "notice": "The Raffles contract keeps track of the details and ticket sales of multiple raffles."
  }
}